:020000040002F8
:1090000010500020D9930200E1930200E393020084
:10901000E5930200E7930200E993020000000000DC
:10902000000000000000000000000000C5930200E6
:10903000ED93020000000000EF930200F1930200A4
:10904000F3930200F3930200F3930200F393020000
:10905000F393020000000000F3930200F393020078
:10906000F3930200F3930200F3930200F3930200E0
:10907000F3930200F3930200F3930200F3930200D0
:1090800005970200A1940200F3930200F3930200FB
:10909000F3930200F393020015950200F39302008C
:1090A000F3930200F39302000000000000000000B0
:1090B000F3930200F39302000000000000000000A0
:1090C00000000000000000000000000000000000A0
:1090D0000000000000000000000000000000000090
:1090E0000000000000000000000000000000000080
:1090F0000000000000000000000000000000000070
:10910000000000000000000000000000000000005F
:10911000000000000000000000000000000000004F
:10912000000000000000000000000000000000003F
:10913000000000000000000000000000000000002F
:10914000000000000000000000000000000000001F
:10915000000000000000000000000000000000000F
:1091600000000000000000000000000000000000FF
:1091700000000000000000000000000000000000EF
:1091800000000000000000000000000000000000DF
:1091900000000000000000000000000000000000CF
:1091A00000000000000000000000000000000000BF
:1091B00000000000000000000000000000000000AF
:1091C000000000000000000000000000000000009F
:1091D000000000000000000000000000000000008F
:1091E000000000000000000000000000000000007F
:1091F000000000000000000000000000000000006F
:10920000DFF810D000F03AF900480047D1A602007C
:10921000AFF300801050002030B450E8012F93B21B
:10922000C48923448489A34228BF1B1B0489A34209
:1092300002BFBFF32F8F002007E0C3EA020340E81C
:109240000134002CE9D14FF001000A6030BC7047B6
:1092500050E8012FC2EA024240E801210029F7D17B
:10926000704730B450E8022F1FFAA2F3C488A3421B
:1092700002BFBFF32F8F00200DE0C48923448489EF
:10928000A34228BF1B1BC2EA034340E80234002C60
:10929000E8D14FF001000A6030BC704750E8022F5F
:1092A000C2EA224240E802210029F7D17047034672
:1092B00053E8022FD988B2EB324F4FF0000017BFAE
:1092C00092B241EA014142EA014104E05A68B2EB3C
:1092D000324F08BF012043E80212002AE8D170474C
:1092E00030B4044654E8000F0D4644E80053002B08
:1092F000F8D1156030BC704730B4044654E8000F14
:1093000040EA010544E80053002BF7D1156030BC5A
:10931000704730B4044654E8000F00EA010544E801
:109320000053002BF7D1156030BC704730B40446B1
:1093300054E8000F80EA010544E80053002BF7D100
:10934000156030BC704730B4044654E8000F00EBA1
:10935000010544E80053002BF7D1156030BC70477D
:1093600030B4044654E8000FA0EB010544E8005374
:10937000002BF7D1156030BC704770B404464FF035
:10938000000054E8006F0D68AE4207BF44E80023B8
:10939000012044E800630E60002B1CBF0020F0E7B2
:1093A00070BC704730B4044654E8000F88422CBFAC
:1093B000451A054644E80053002BF5D1156030BC32
:1093C000704700001EF0040F0CBFEFF30880EFF3AE
:1093D000098002F041BB000006488047064800476C
:1093E000FEE7FEE7FEE7FEE7FEE7FEE7FEE7FEE755
:1093F000FEE7FEE71995020001920200202A04DB35
:10940000203A00FA02F1002070479140C2F1200397
:1094100020FA03F319439040704740EA01039B0789
:1094200003D009E008C9121F08C0042AFAD203E0D9
:1094300011F8013B00F8013B521EF9D27047D2B23D
:1094400001E000F8012B491EFBD270470022F6E72D
:1094500010B513460A4604461946FFF7F0FF2046AA
:1094600010BD30B504460020034600E05B1C93426B
:1094700003D2E05CCD5C401BF8D030BD064C074DFC
:1094800006E0E06840F0010394E8070098471034D4
:10949000AC42F6D3FFF7B8FE6CD702008CD70200BF
:1094A0002DE9F041194E4FF48271D6F8040130B124
:1094B0001748C268521CC260304602F069F90025A4
:1094C0004FF4A07707EB85018AB23046B258BAB1A3
:1094D00089B202F05DF90E48103000EB0514204609
:1094E00003F0B6FD616819B1204603F037FD07E0CF
:1094F000A16811B1204603F031FD206800B180471A
:109500006D1C022DDED3BDE8F0810000001001408B
:10951000D022002002F034BA70B54FF080520024FF
:10952000D2E94C100E2905D1D2F84432694DC3F36B
:1095300042332B60082901D00E2908D14FF0804317
:10954000C3F80C41C3F81041624B1B1F1C60082973
:1095500001D00E2955D1604B1B68604D2B605E4BCE
:109560001B1D1B682D1D2B605B4B08331B682D1DBD
:109570002B60594B0C331B682D1D2B60564B103341
:109580001B682D1D2B60544B14331B682D1D2B6045
:10959000514B18331B68514D20352B604E4B1C33FB
:1095A0001B682D1D2B604C4B20331B682D1D2B6021
:1095B000494B24331B682D1D2B60474B28331B68F8
:1095C0002D1D2B60444B2C331B682D1D2B60424BF3
:1095D00030331B68414D40352B603F4B34331B68A3
:1095E0002D1D2B603C4B38331B682D1D2B603A4BD7
:1095F0003C331B682D1D2B60374B40331B682D1DE2
:109600002B60082904D1030002D1364D344B2B6066
:10961000082904D1030002D1334DFB232B60334BC7
:10962000082907D1050005D192F858521A6865F348
:1096300003021A60082904D1020002D12C4D8A01CC
:109640002A60082901D00E2906D12A4A1568ED079B
:1096500002D06FF0010515600E2903D11A6842F09F
:109660000F021A604FF01022082906D1032804D9EE
:10967000D2F8080217491C310860D2F800021E4BCC
:10968000002803DBD2F8040200280EDA012002F0E1
:1096900031FA1220C2F8000219680029FCD0C2F881
:1096A000040218680028FCD00BE092F80C02C007F6
:1096B0000CD0012002F01EFAC2F80C4218680028F3
:1096C000FCD0002002F016FA00F026F80C490B48F6
:1096D000086070BD3C0500400404001020C5004037
:1096E000488103008C56004018F50040E40E00400D
:1096F000409602400004004000E401400090D00386
:1097000068230020034808B500210160006800902C
:1097100008BD000000010140BFF34F8F05480168FC
:10972000054A01F4E06111430160BFF34F8F00BFB0
:10973000FDE700000CED00E00400FA0502E008C8B7
:10974000121F08C1002AFAD170477047002001E0BB
:1097500001C1121F002AFBD17047000001212028FF
:1097600003DA81400548014003E0402802DA20384E
:10977000814009B10120704700207047FC06FFBD01
:10978000800701D00020704701207047C3688B42DA
:1097900006D811440069491E814201D80120704752
:1097A0000020704730B585B00D46164C1621ADF837
:1097B00000101ECC0DF1040C8CE81E00124C02218E
:1097C000012221706270A0700320E0702171592085
:1097D0006071FE20A071694604F109007DDF002858
:1097E0000ED1BDF800002A46411CE1710921217209
:1097F000BDF808100844ADF8080001A9034872DF5D
:1098000005B030BD20D40200A0270020082300208E
:1098100010B586B00624182208496846FFF7FDFDFA
:1098200069462046FFF7BEFF002805D1044C20788A
:1098300074DF0121207873DF06B010BD30D4020040
:109840000823002070B5104CA66C656A01F0DAF9A7
:10985000216B08446A1A3144814200D10022082356
:1098600000F070FE06000DD101F0CCF9002229466F
:1098700000F0DAFBA16A814203D10121A561C4E9AC
:109880000701304670BD0000383F002002F034FA76
:1098900002F032FA2DE9F84F254C81469246608855
:1098A0000E46814241D800274FF6FF788DF80070B0
:1098B000684600F075F822786078A188884201DA5D
:1098C000401C00E00020C0B2904204D19DF800008E
:1098D00000F08AF827E065786078884201DA401C59
:1098E00000E0002060709DF8000000F07DF8454524
:1098F00019D0A068B9F1000F40F835A00DD066B1BD
:109900006188E068324605FB01004946FFF785FDA6
:10991000A06800EBC500868002E000EBC5008780F0
:109920000020BDE8F88F0420FBE70920F9E70000DC
:109930004823002010B50E4C03E0401C00E000203E
:10994000207020786178814210D022786188E068A8
:10995000A36802FB010003EBC20153F8322089889F
:1099600090472078A1888842E9DAE6E710BD000038
:109970004823002030B5CB0008339DB293074FF049
:10998000000401D0072030BD044B9A602A44DA60FD
:109990005C701C7058809980002030BD48230020E6
:1099A00030B5EFF3108172B60D4A9468012324B1EB
:1099B0000370002900D162B630BD93604FF0E02300
:1099C000D3F88051074C25401560C3F88041D3F887
:1099D000844154605A17C3F8842100220270E8E7DA
:1099E00004460020FC06FFBD0B498A68002A11D0FE
:1099F00000280FD1EFF3108072B60B684FF0E02211
:109A0000C2F800314B68C2F8043100228A60002895
:109A100000D162B6704700000446002070B51048BF
:109A20000146456AC06A8C6CAC2801D024B106E0BE
:109A3000486B04442D1A02E001F0F8F804462A4667
:109A400021460848FFF70DFD002807D001F032F845
:109A500029462046BDE8704001F00CBA70BD0000F8
:109A6000383F00200090020030B504462C4995B0E4
:109A70004FF6FF70488001208DF812004FF65960B4
:109A8000ADF81000224604A90120A8DF002844D127
:109A9000244B0FCB8DE80F00A11C684662DF002825
:109AA0003BD120491C2260390BA8FFF7B6FC1E4DA4
:109AB000142205F1C401A8681290A0788DF84A001C
:109AC0002868139006A8FFF7A8FC12A8069013A810
:109AD00007902088231D06AA0BA9AADF00281CD105
:109AE0001C2205F1D8010BA8FFF797FCE86812903B
:109AF000A0788DF84A0068681390142205F1F401EB
:109B000006A8FFF78AFC12A8069013A807902088E1
:109B100004F10C0306AA0BA9AADF15B030BD0000A2
:109B200008230020F8D40200F0D30200F0B585B07D
:109B3000044614216846FFF789FC2078032308288F
:109B40000BD12748C188491E89B2C1808288002A6A
:109B50003ED000293CD1C2802370217860786022F9
:109B60008DF800208DF801108DF802006078032137
:109B700001280AD00B2828D100F092FC8DF80300B0
:109B8000002000F095FC04211FE0207809281CD259
:109B9000DFE800F01B1B1B201B1B051B2000D4E96A
:109BA00002706D46E91C666803F05CFA04462919E8
:109BB0003046C91C03F056FA044429193846C91C1A
:109BC00003F050FA2044C01CC1B2684602F09EFE69
:109BD00005B0F0BDD4E90112684602F086FEF2E756
:109BE000082300202DE9F0411349034600208A682C
:109BF000D4071ED0114CA3421BD04888A0F57F4348
:109C0000FF3B10D042F004028A60132176DF002867
:109C10000FD10B4EC8254FF47A47741C3846A04725
:109C20006D1EFAD101E0087874DFBDE8F04101F063
:109C300043BEBDE8F0810000082300208CD702005D
:109C400000D4020038B5214C0021227AD20701D07D
:109C5000084638BDE0601E4800F0E4FD002000909A
:109C600001F014F988B91B4813DF70B901F04EFEFA
:109C700058B9684601F092FD38B96946012001F0F3
:109C800097FD10B9684601F0DDFD0028E1D101F033
:109C9000E9F930B1104801F0D9F9A06840F00200AC
:109CA000A06000F01BFC0028D3D10B481C30FFF74C
:109CB000DBFE0028CDD1FFF7ABFD0028C9D1A0689D
:109CC00040F00100A060002038BD00000823002003
:109CD00094D7020000900200C027002070B504460F
:109CE000001D2188674D86B021297CD022DC1229F5
:109CF00054D018DC012977D0102946D011294DD134
:109D00004FF6FF706880287A400704D4FFF780FD83
:109D100008B1FFF7BDFDE96800293FD006B0022079
:109D2000BDE87040084713297DD0142975D01A2941
:109D300034D1A0E0522971D016DC22292ED050292E
:109D40002ED051292AD1A079002827D021464E486B
:109D500001F0EAFF002821D006B004F10801BDE8B7
:109D60007040494801F0D2BE552941D0562915D13D
:109D7000A079002812D11321688876DF00280DD041
:109D800006B0BDE87040FFF783BD00886880E968D1
:109D900009B1012088473D49688875DF06B070BD6C
:109DA000394D34F8060FA9888842F7D1384800F0B9
:109DB000FFFC0600F2D0628904F10C01FFF72DFBD5
:109DC000324918227A316846FFF727FB049601953D
:109DD0006089ADF81400684601F08CF80028DDD0E9
:109DE00031462B4801E036E03BE000F003FDD5E7CB
:109DF000E188F72913D28807B0F1404F10D0C91F6E
:109E000089B2481EC21700EB927222F00302801A38
:109E1000081A801D81B203E005E026E02BE0F7215F
:109E20006888B5DFAAE719486A46163842F6052160
:109E3000806A009002A801906888ADDF08B1FFF742
:109E400027FD00231A46852168887FDF0028A5D0DA
:109E5000FFF71EFDA2E700210091008869468FDF11
:109E6000F4E70021688866DF88E700210A46008859
:109E70000B4686DF82E7002300881A461946B1DFC9
:109E80007CE7000008230020DC27002006D4020025
:109E900094D70200007800F00100704713B90378EE
:109EA000012B01D001F001BA012070470022C3212B
:109EB00000F5187000F0B8B82DE9F043A1B00446E1
:109EC000DDE9289520200F462090984616467821F7
:109ED00002A8FFF7BBFA41212046FFF7B7FAB7F80F
:109EE000940006EB061107EB8101B04201D991F80D
:109EF000965025701DB3012D04D0022D0AD0032DDC
:109F000013D116E000224946404600F08DF8C4F80F
:109F1000010014E020A9601CCDE900014B46424637
:109F20000A4902A800F0FEFD48B1002021B0BDE8BA
:109F3000F083B1F89820601C9A31FFF76EFA4A4618
:109F40004146204601F0B1F9F0E7000018D20200C6
:109F500010B500284FF0000006D004490870BDE895
:109F60001040034801F0AAB800F0F2F9C82200201E
:109F700051A302002DE9FC410646C0074FF0000541
:109F80000ED0104F00240122385D009500231146A9
:109F9000019501F08EFB641C042CF4D300F024F82E
:109FA000B0070DD5074E0024361D0022305D032377
:109FB00000951146019501F07CFB641C042CF4D340
:109FC000BDE8FC81FCD102000249085C012101F0DE
:109FD00082BB0000FCD102000249085C002101F0B4
:109FE0007ABB0000FCD1020010B500242046FFF728
:109FF000EBFF641C042CF9D310BD10B543689C180A
:10A00000446021B905E013F8010B01F8010B521E61
:10A01000F9D2012010BD00000249CA6B4260096CF0
:10A0200081607047383F0020F0B54FF0FF3622B115
:10A030001268D24300230A4D0DE03246FAE7C45CB1
:10A0400062400824D70700D037462F4087EA5202E3
:10A05000641EF7D15B1C8B42F1D3D043F0BD0000EE
:10A060002083B8ED10B504460068401C07D0204698
:10A0700002F022FD2168814201D1012010BD0020A3
:10A0800010BDF0B5146906468DB020681546271D31
:10A09000E0B1022920D00A2000906B4609AA304680
:10A0A00002F0F2FB00280FD009A901A8009A02F0E3
:10A0B000E1F901AE96E80F0005AE86E80F002368CF
:10A0C00069683A4605A898470DB0F0BD0DB0304616
:10A0D000BDE8F04002F042BA6946304602F0D4F9D9
:10A0E0000028F1D0236869683A46684698470028F6
:10A0F000EAD002980028F5D1019870600120E3E7CA
:10A1000053689B7813F0C00303D0402B03D000208A
:10A11000704700F003B8FFF7B4BF00002DE9FF411E
:10A120000B465168064614468878334D00F00F02FE
:10A1300010F0300055F8225006D0102806D0202804
:10A1400008D0302856D13EE022694DE061690120F7
:10A15000087047E0022B28D1042A26D84FF00108C6
:10A1600069463046676902F08FF900281AD009E085
:10A170000B89226903FB00226846A84770B1388822
:10A18000401C3880029820B1616838884A89904222
:10A19000EED301987060029860BB02E04FF00008B7
:10A1A000F7E7404604B0BDE8F081D4E904300F89F8
:10A1B0000288498907FB02338A421BD2521C028063
:10A1C0001A46616810E008886169072A088009D189
:10A1D000606801892069FFF739F960682169C06802
:10A1E00002F06DF92269616804B03046AC46BDE802
:10A1F000F04160470020D5E748D7020070B52048FD
:10A2000001240168C90301D5811308E01D480168D4
:10A2100001F0F901A92904D1016801F0560101609A
:10A220000024194D286A012828D14FF440501749BD
:10A230004068884208D123464FF4805105F51870D4
:10A240006A6BFFF72BFEC8B100F0DCFC0146234629
:10A250000F48AA69FFF722FE80B14FF0A040D0F866
:10A260001005400E10F0010F08D00648001F0068CE
:10A2700000F0F900B12801D0002070BD012070BDB0
:10A280000004004020050040383F0020DBE5B151CC
:10A29000D94100204169002901D0C06808477047B2
:10A2A00010B508281BD2DFE800F004121A1A1A04AD
:10A2B0001A040120FFF75EFE0020FFF78DFE01204B
:10A2C000FFF78AFEBDE810400220FFF77DBE0120A7
:10A2D000FFF77AFEBDE810400220FFF77DBE10BDFB
:10A2E00010B50446801E062810D2DFE800F00D03EA
:10A2F000030F09090A494FF4701000F0EDFA05E068
:10A300000120FFF725FE01E000F000FF054841684D
:10A31000002903D02046BDE81040084710BD0000CA
:10A32000D5A50200C822002010B50446062801D099
:10A33000072C02D1002000F081FF044801680029A9
:10A3400003D02046BDE81040084710BD042300207C
:10A35000BFF34F8F05480168054A01F4E0611143DE
:10A360000160BFF34F8F00BFFDE700000CED00E080
:10A370000400FA052DE9FC4180461F4615460E46AD
:10A3800000240D4800F006FA38B11120BDE8FC8128
:10A3900006EB043001F0AAF9641CAC42F8D106487F
:10A3A00000F0F5F9CDE9005733460022022140467E
:10A3B00000F02AF80020E9E7582300202DE9F843AF
:10A3C000104D0F4680461E4691466946286800F0AB
:10A3D000B2F9040014D01C21FFF738F801202071D5
:10A3E000C4F81490380BC4F80080C4E902606946D0
:10A3F000286800F0C1F902F027FA0020BDE8F883D0
:10A400000420FBE774D502002DE9F04387B0044631
:10A41000DDE90E8980681D4616460F4600280BD0E0
:10A4200018216846FFF712F802A88DF8007080E83E
:10A430006003A1686846884707B0BDE8F08330B57F
:10A440000446006887B00D46806800281FD0182198
:10A450006846FEF7FBFF0195A0680590207910B1D2
:10A46000012810D107E001208DF80000206902903A
:10A47000E068039005E002208DF80000E06800032A
:10A48000029060690490206881686846884707B038
:10A4900030BD0B2803D30B38C0B200F009B87047A9
:10A4A0000249002208780A7070470000202300202B
:10A4B000014908700B20704720230020014901202A
:10A4C00008707047C82200200149012008707047B9
:10A4D000002300200123723000F008BF0EB59DF864
:10A4E000080020F00F00401C20F0F00010308DF824
:10A4F000080068466DDF002819D19DF80100401C56
:10A500008DF8010068466CDF002810D10848007AF9
:10A51000800703D50748011D806901E006A10720D7
:10A5200082B202A87CDF002801D105487ADF0EBD87
:10A5300008230020C027002044667554617267001C
:10A5400006D402002DE9F04781461D46164688468E
:10A55000494502D10020BDE8F087A8EB0900040BB3
:10A5600006F6FF704FF0000A070B00F0B7FAA5429D
:10A570002AD22C4628E0A74202D8BA46354601E046
:10A58000A246250300225146484600F039FC002827
:10A59000E1D1681E00F003002A1A00234146484614
:10A5A000D21C00F043FC0028D5D10948A7EB0A07CC
:10A5B000761B016BA94429440163A844002000F0E4
:10A5C00029FE5FEA000AC6D1002ED4D15046C2E768
:10A5D000383F00200120FFF7BBBC0000014941606B
:10A5E0000020704748D5020010B50B4941600B4868
:10A5F00000F0D0F868B901F0D5F908491C234FF4F0
:10A60000EE7208740448A1F5EE71001F006800F0B6
:10A610007FF8002010BD000078D50200FC47002024
:10A6200002480068002800D001207047582300200D
:10A630000248007A002800D001207047FC47002023
:10A6400010B54FF44051144B4C6800F500509C423B
:10A6500004D042689A4201D1012200E000229C42CB
:10A6600018D144689C4215D10A78142A01D9496945
:10A6700000E00021094A0378B1FBF2F1142B01D963
:10A68000406900E00020B0FBF2F0814201D00122DD
:10A6900000E00022104610BDDBE5B15140420F0042
:10A6A00070B5054608680C464A68866828463146F3
:10A6B00001F026FE6068286104F10C006861B07842
:10A6C0000221B1EB901F01D1241D2C6170BD00004F
:10A6D00000F0D8F94FF48051002000F011F940B992
:10A6E0000548C0F5383100F00BF910B9034800F007
:10A6F00067F901F001FB000000900200A1A2020036
:10A7000010B5FEF7D4FD08B1002010BD112010BD1A
:10A7100010B531B1B2FBF3F403FB14241CB10920D2
:10A7200010BD0E2010BD016000214160816082815A
:10A73000C381084610BD70B50C460546FEF76CFD9A
:10A74000002802D021882868084470BD10B50A8806
:10A7500049888A4203D1FEF7A1FD012010BD0020E7
:10A7600010BD70B50C460546FEF77BFD002802D0F3
:10A7700061882868084470BD10B50A8849888A42F3
:10A7800003D1FEF765FD012010BD002010BD0021A2
:10A7900000F003B8012100F006B808B56A46FEF7DC
:10A7A000B8FD009808BD08B56A46FEF7A5FD08BDCE
:10A7B00038B5044600258DF800506846FFF7F0F8DC
:10A7C00021686268086890420ED9401E08600178CE
:10A7D000238AE26801FB0325227A2168101AC0B29D
:10A7E0000A79824200D208719DF80000FFF7FCF858
:10A7F000284638BD38B5054600208DF800000C46C7
:10A800006846FFF7CDF8E868298A201AB0FBF1F115
:10A810002A681068431C136001709DF80000FFF760
:10A82000E3F838BD10B530B1017A42680368891A7F
:10A83000C9B21A6006E00E2010BD03681A68541CE5
:10A840001C601170491EC9B2F7D200680021017165
:10A85000084610BD10B54FF0E0224FF0FF314FF425
:10A860008054C2F88011C2F8801200F01BFB204611
:10A87000BDE81040AFF3008010B504461448C0F5A1
:10A880003C3100F03DF808B1FFF702F800F0BAF9EA
:10A89000014610488069421EC2F30B02801A01442F
:10A8A000002001F6FF7100F02BF808B1FEF7F0FF71
:10A8B000D4E90001002282F3148882F3108882F325
:10A8C000118882F3138880F30888BDE81040084798
:10A8D00000900200383F002070B5084D04460E4637
:10A8E000686802F0B5FB002C06D032462146686845
:10A8F000BDE8704002F09EBB70BD0000D022002079
:10A90000F0B50A0502D1B0F53C3F01D90720F0BDF2
:10A91000000B491E0C4D012400EB11332E1D0EE0DF
:10A920004209C2F1000100EB411704FA07F102D01D
:10A93000012A03D101E0296000E03160401C984207
:10A94000EED90020F0BD00000006004070B5194DA2
:10A950000024E86A2435012807D0A52808D0AA28B1
:10A9600009D0AC280AD0002070BDFEF76BFF0BE0C9
:10A9700001F0EAFF07E0FFF751F805E001F0E4FF1E
:10A9800008B9FFF74BF80124284600F05FF90A499F
:10A9900000200870094800F03DFC08B1032070BD9C
:10A9A0000120002CFBD00349096A0129F7D10220BC
:10A9B00070BD0000383F002000230020C9A4020021
:10A9C00070B5284D2949002668602748C1F800075E
:10A9D000304600F079FB18BBFFF7B8FF20B1012823
:10A9E0001BD0022835D105E04FF47014FFF706FCA8
:10A9F00010B92BE04FF4A02400F070F81C4A20217D
:10AA00001820FEF7B7FF08B1FEF742FF19480168AA
:10AA100001F0F901B12904D007E00120FFF798FA0D
:10AA200017E0016801F04E01016000F021FA80B9E1
:10AA300011492046FFF750FF104800F003FA40B9D3
:10AA400000F038F8FEF776FF41DFF9E700F0E4FAAE
:10AA500008B1032070BD2E70094800F02FFBFFF7EE
:10AA6000F9FEF6E7C82200200C0003006400005045
:10AA7000802300201C050040D5A50200E1A20200B1
:10AA8000BDA4020010B540F6F8700168491C02D15F
:10AA9000074900F043FE40F6FC700168491C05D1EF
:10AAA000BDE810404FF4383100F038BE10BD000052
:10AAB0000090020010B501F015F8002803D0BDE8A1
:10AAC000104002F02DBB10BD034A93680A460146B0
:10AAD0009860184602F0AEBAD022002070B50E4D34
:10AAE0002878002817D100F0FDFF012690B10B480F
:10AAF0000468A4F54864962C00DA962402F010FB52
:10AB000007492046FFF7E0FF4FF0E0214FF4803087
:10AB1000C1F800012E7070BD012300200405014022
:10AB20005DD102002DE9F0411D46DDE9068716469C
:10AB3000044600F02DF800280DD12A463146204663
:10AB400000F03CF8002806D13A4641462046BDE8D0
:10AB5000F04100F002B8BDE8F08170B515460E4630
:10AB6000044602F0CDFA002807D13EB1606829689A
:10AB7000C268914205D248F2145070BD48F2135099
:10AB800070BD83682A4631462046BDE870401847AC
:10AB900010B550B161B1416009680446884700288A
:10ABA00002D105482060002010BD48F2015010BDC0
:10ABB00048F2105010BD00006E52464870B5154660
:10ABC0000E46044602F09CFA00280BD146B155B15E
:10ABD00060682A46314643682046BDE87040184701
:10ABE00048F2105070BD002070BD00000244521E9B
:10ABF00004E000BF11F8013B02F801398242F9D2AA
:10AC0000704700004FF44050074A4168914207D115
:10AC10008068411EC1F30B01401A00F6FF707047B7
:10AC20004FF4805070470000DBE5B15100B5FFF7ED
:10AC3000E9FF054989690A18401E0844C0F30B0062
:10AC4000101A00F6FF7000BD383F0020002101609F
:10AC5000416081600148016370470000383F002077
:10AC60002DE9F0419846214F16460C460546002333
:10AC700001215BB1012B11D0022B1ED00020381A0C
:10AC8000A0F50050A8421BD201221AE0FFF7CEFF28
:10AC90008EB11749096A0129F1D00CE0FFF7B2FF24
:10ACA000B8F1000F05D14FF44051124A4968914262
:10ACB00001D00121E3E70021E1E74FF48050DEE716
:10ACC000002242EA0400884305D0022B03D25B1C19
:10ACD000DBB2022BCCD912B10420BDE8F0811BB14C
:10ACE00003481830FFF7B2FF0020F6E7009002009B
:10ACF000383F0020DBE5B15170B5044600780928E3
:10AD000011D2DFE800F010051011251038101300E3
:10AD10000D461D490320C9688847606900F04CFB57
:10AD2000FFF7B7FB687070BD084628E00D46A18AA2
:10AD3000206900F01DFBFFF7ACFB68702846FFF7A9
:10AD40006BF9E1680029EED02069BDE87040084742
:10AD50000C460D490831081F00F048FBFFF799FB2E
:10AD600060700128DFD1002000F054FA0028DAD00A
:10AD70000A20607070BD08464FF40071C160BDE8E4
:10AD80007040FFF749B900002423002070B51A4A2B
:10AD900005780124936C092D2CD2DFE805F02B05F2
:10ADA0002B0B0F2B252B080000F0EAFE22E000F011
:10ADB0005DFF1FE08B60106D48601BE0D2E914540A
:10ADC000566C2C1BA64203D008204870012411E0C9
:10ADD0000024556554642146D36400F00BFF0749F5
:10ADE0000420C968884705E08B60106D48604FF407
:10ADF0008050C860204670BD383F002024230020CA
:10AE000013460A460146014800F086BB6C23002029
:10AE100008B1034900E003490022034800F092BB57
:10AE200084D5020054D502006C23002008B500939D
:10AE300013460A460146024800F01CFC08BD00000B
:10AE40006C230020084910B508600020FFF76CFA59
:10AE5000064800F00DFA002804D1BDE81040034870
:10AE600000F026B810BD00000423002029A3020032
:10AE7000002070471FB58908002201AB009283E8CB
:10AE80000700684618DF04B010BD00001FB5044B72
:10AE90000FCB8DE80F00684618DF04B010BD00002E
:10AEA00008D502004FF4805041040860002070472C
:10AEB00010B5040011D00120FFF7AAFF00280BD124
:10AEC00000F044FA00F0D4FA48B10949081F00F034
:10AED0008DFA012803D0032010BD072010BD0448BF
:10AEE0000838C4600020FFF7E3FA002010BD00001E
:10AEF0002C230020816819B1024A1821FEF7CABC30
:10AF00000720704709AF0200AFF3008030B587B06B
:10AF1000044618221F496846FEF77FFA20788DF80C
:10AF2000000022781C4D0D2A25D2DFE802F0240B08
:10AF3000270B0B240B240B2424240700E96807208B
:10AF400088471BE020466946062A01D0012A01D124
:10AF5000027C2A702A78012A05D0022A06D0002015
:10AF60002870052008E0FFF7C7FE07E0FFF70EFF97
:10AF700020B907B030BD02208DF80100D4E90112DC
:10AF8000684690479DF801000128F2D0E968052045
:10AF90008847EEE730D502002423002038B1054968
:10AFA00001600549416001210172002070470E20B7
:10AFB00070470000BDAF0200F5AF020010B50C00F5
:10AFC00001464FF0110007D02278052A05D2DFE8AC
:10AFD00002F00F050D0F0F000E2010BD084600F007
:10AFE00051F80028F9D10221217010BD112010BDA7
:10AFF000082010BD0246082041B10B78022B04D175
:10B00000022A05D0032A00D1112070470E20704774
:10B01000002003220A70704770B50B480024D0F856
:10B020002413491C03D1D0F86403401C09D04FF409
:10B030003C35284600F05AFBC9220349284600F057
:10B0400085FB204670BD0000383F002010B528B1B8
:10B050001C220349FEF7E1F9002010BD0E2010BDAF
:10B0600064F3020010B5064C00221821201DFEF7E3
:10B07000DBFF2168814201D1012010BD002010BDFD
:10B0800064F3020070B50C4D0400D5F8640305F5B7
:10B09000597503D0401C03D0082070BD0E2070BD30
:10B0A00000221821201DFEF7BFFF20600722214645
:10B0B000284629DF70BD000000F00200014901F0C0
:10B0C000F1BC000000F0020010B5FFF7A1FE30B99E
:10B0D00000F01CF8002000F09DF8002800D00320AC
:10B0E00010BD000010B5FF224FF400710648FEF7B6
:10B0F000A6F9054820212438FEF7A8F902490020C6
:10B100005C39086310BD0000943F00202DE9F04732
:10B110002E48FEF7A7FF2E4E074634682046FEF75E
:10B12000A1FF4FF0010A4FF0000958B160680128F3
:10B1300006D02046FEF7BAFED4F85C12884201D150
:10B14000012500E00025234C4FF002084FF4607108
:10B150009FB10A461D492046FEF75FF99DB136684A
:10B1600025465422311D281DFEF757F94FF432723F
:10B1700006F15C0105F15C0003E015B30A461548D1
:10B180003168FEF74AF96068012818D11249402257
:10B1900001F5E470FEF741F90F491C22403101F539
:10B1A000E470FEF73AF984F8609284F8A1A20B48A3
:10B1B00084F8E292E169C0F82210C4F80480BDE886
:10B1C000F0870448FEF742F9F7E7000000F00200BC
:10B1D00034230020383F002094400020B841002054
:10B1E00070B50546094801F067FC084C2060204610
:10B1F000FEF75CFEC4F85C02A4F5E0632A46214633
:10B20000BDE87040024801F05CBC0000383F0020FF
:10B2100000F0020070B505460020FFF7E1FF0400D2
:10B2200003D10349284601F03DFC204670BD0000D3
:10B23000383F00204FF48050704700002DE9F04166
:10B2400007460948094D401BC6080020044607E090
:10B2500005EBC400416838468847002802D1641CC9
:10B26000B442F5D3BDE8F08194D702008CD7020038
:10B270002DE9F04107460948094D401BC60800204A
:10B28000044606E055F8341038468847002802D1B5
:10B29000641CB442F6D3BDE8F081000094D70200EC
:10B2A0008CD70200012201F087B970B515460278EB
:10B2B0000B467AB1012A04D0022A0DD0032A12D1FA
:10B2C00008E0D0F80140002229461846FEF7ACFEFF
:10B2D000A04208D1012070BD2A46BDE8704000237D
:10B2E000401C00F003B8002070BD00002DE9F041C3
:10B2F000AAB005462020884628901E4617460124FD
:10B30000782102A8FEF7A2F82EB12022294620A813
:10B31000FFF76CFC20AD28A90A48CDE900013B46A7
:10B320004246094902A8FFF7FDFB28B92022294619
:10B330000448FEF796F800B100242AB02046BDE884
:10B34000F0810000E445002018D2020010B5064844
:10B35000064C806B20B101F09DFD08B1012000E09A
:10B360000020207010BD0000383F0020382300204E
:10B370002DE9F0410F4C07460D46E06BA26B01260C
:10B380004119914201D9032610E00A492A465C314D
:10B3900008443946FEF741F8E06B064A2844E0636A
:10B3A000403229463846FEF73FFE20643046BDE86D
:10B3B000F0810000383F002070B504004FF0010517
:10B3C00004D0B4F5007F03D9042508E0032506E086
:10B3D000044900200870FFF785FE0348846328466F
:10B3E00070BD000038230020383F00202DE9F041D7
:10B3F00006461D480F46C16B806B814201D0082470
:10B400002FE01A4D287840B1FFF710FC3060394624
:10B41000E86801F049FE044623E001F03BFDF8B185
:10B4200000F02CF80446002030603860012C0FD169
:10B430003946E86801F038FE0446012808D138682A
:10B44000012700213B460A46FFF70AFC18B10424F5
:10B45000FFF748FE05E0FFF7E9FB30602F7000E0E2
:10B4600005242046BDE8F081383F00203823002025
:10B470000148007870470000382300200449081D67
:10B4800091F86C1101B10348001D00F005B80000EF
:10B49000B84200202844002070B5044690F85400BB
:10B4A000012570B394F8550028B1012803D0022873
:10B4B00001D003282AD194F86E00032801D0142566
:10B4C00025E0207AE8B1E068342801D011251EE09B
:10B4D000204601F085FA68B1207898B194F85510AB
:10B4E0000C4849B1012907D06168C06881420ED873
:10B4F00010250CE012250AE061688068814206D2BE
:10B50000F6E703E094F85500012800D00F252846FF
:10B5100070BD0000383F00202DE9F041044640682E
:10B5200015461E4602680F466A432046FEF72EF96E
:10B53000206833462A46D0F810C039462046BDE878
:10B54000F041604701600B68114618472DE9F04152
:10B5500028B1016819B1C969BDE8F04108470D4D2E
:10B560000D480024461B14270DE000BF04EB8400A7
:10B5700005EB8000016829B1C969884710B1012035
:10B58000BDE8F081641CB6FBF7F0A042EED80020C5
:10B59000F6E700006C2300208023002004480121EE
:10B5A0004174007A08B10020704701207047000004
:10B5B000FC470020012801D0032808D104490022BB
:10B5C00001284A7400D00020087401F0EFB87047D9
:10B5D000FC47002070B50146022801D0032943D161
:10B5E000224C207A00283FD0012831D002282FD1C8
:10B5F0001F4800230229006802D0032928D119E03E
:10B60000E360027912B1012A22D10BE0D0E905658D
:10B61000721B142A00D314222A4482614569AA426B
:10B620000ED015E00169491C0161426991420FD1B8
:10B63000237213E0E268521CE260082A08D9E36032
:10B64000237202290AD00D21FEF7F9FE01F0A4F8B9
:10B65000607C28B1BDE8704000F0AAB90021F3E792
:10B66000BDE8704001F0A2B870BD0000FC470020AA
:10B670005C2300202DE9F84304461D4616460F467C
:10B680000846DDF82080FEF77BF83046FEF778F8B4
:10B690002A4639462046FEF779F8CDF80080206822
:10B6A0002B463246D0F80CC039462046E047BDE86C
:10B6B000F88370B541EA4201DDE904564FF0A04439
:10B6C00041EA830141EA052104EB800041EA064199
:10B6D000C0F8001770BD01224FF0A043824011B1A5
:10B6E000C3F808257047C3F80C25704709490222A2
:10B6F0000A60BFF36F8FBFF34F8F0A1D10600648BB
:10B700000268002AFCD000200860BFF36F8FBFF3EF
:10B710004F8F704704E5014000E40140094A0123CE
:10B720001360BFF36F8FBFF34F8F0160064801684E
:10B730000029FCD000201060BFF36F8FBFF34F8F44
:10B740007047000004E5014000E4014070B50E4C74
:10B7500001232360BFF36F8FBFF34F8F00230B4D87
:10B7600008E000BF51F8236040F823602E68002EE7
:10B77000FCD05B1C9342F5D300202060BFF36F8F99
:10B78000BFF34F8F70BD000004E5014000E40140AD
:10B7900008B5002242504058009008BD20B103492E
:10B7A00009680160002070470E2070471CD7020016
:10B7B000FEB506460C460846FFF7F0FF002840D1CC
:10B7C000002500950195012706208DF80060ADF851
:10B7D000040002958DF8027069462020226869DF16
:10B7E0000095019502958DF8017069464020226808
:10B7F00069DF00958DF80060F720ADF80200019533
:10B80000029569462320226869DF0095019502951B
:10B810008DF8007069460120226869DF4FF4B0603E
:10B820000090019502956946A120226869DF009584
:10B83000019502958DF800506946A020226869DFC5
:10B840000020FEBD60DF002802D1024A01211170F4
:10B85000704700006723002030B51548ADF5017D25
:10B860000078002821D04FF4FA7500BFADF80052DF
:10B8700080A9684661DF38B1052816D00DF5017D35
:10B88000BDE83040FEF704B86C460A497DA800F0D8
:10B89000BBF806E0D0E90021204690477DA800F0E3
:10B8A000CAF87F980028E1D0F4E70DF5017D30BD9E
:10B8B0006723002020D70200F8B5134C2078C0B1D0
:10B8C0000120A07001F0C0F8112814D0022001F06E
:10B8D000D3F800258DF800506846FEF761F811DFB7
:10B8E000064625709DF80000FEF77EF82EB1304622
:10B8F000F8BD0820F8BD0020F8BDA57001F07EFA63
:10B90000032001F0B9F8F6E7642300207CB5194C58
:10B91000207808B108207CBD0120A070002001F033
:10B9200093F8112819D0002001F0A6F8124800263B
:10B93000006801908DF800606846FEF731F80F4905
:10B9400001A810DF05000AD0002020709DF800003B
:10B95000FEF74AF82DB128467CBD00207CBD0120B1
:10B96000F3E7A670667001F069FA012001F084F82F
:10B97000F3E7000064230020B4D602008D98020093
:10B980000EB50749684600F03FF805E0D0E9001021
:10B990008847684600F04FF802980028F6D10EBD9F
:10B9A000D0D60200014800787047000064230020D0
:10B9B0000548817819B1007818B1FFF77DBF0820DC
:10B9C0007047FFF7A3BF0000642300201FB568463F
:10B9D0004BDF30B1052814D004B0BDE81040FDF7AE
:10B9E00057BF084901A800F00FF806E0D0E9002190
:10B9F0000098904701A800F01EF803980028E6D0B0
:10BA0000F4E71FBD3CD70200016009684160AFF355
:10BA1000008010B5D0E900215368994201D100217E
:10BA200004E0D1E90034A34202D01946816010BD80
:10BA300008314160F0E7816800290BD00268926804
:10BA40000A44826041684B689A4203D108314160E0
:10BA5000FFF7DFBF704700002DE9F04104461348AF
:10BA6000134BC01A0C21B0FBF1F6A0694FF0FF3167
:10BA700010F8022C02B92169002011E000EB40050A
:10BA800003EB85052F68974209D14F1C02D06F68E0
:10BA90008F4204D194E80F00AD68A84703E0401C32
:10BAA000B042EBD301202060BDE8F081E4D7020072
:10BAB000D8D7020010B5144612680830202A02D2E6
:10BAC00048F2145010BD002201F023F80028F9D1EB
:10BAD00020202060002010BD083001F0A3B80830FD
:10BAE00001F062B902480068002800D001207047C8
:10BAF0000004014003490860034801680029FCD0A4
:10BB00007047000004E5014000E4014030B587B013
:10BB10000C460546182217496846FDF77EFC217B36
:10BB200015488DF800100195012906D0022917D07B
:10BB3000062919D1607B049016E08188C180607B62
:10BB40000490217CE08961F31F40617C40EA016040
:10BB500005900498012807D10848FFF76FFB03E020
:10BB6000B4F80D108180C1806846FFF7C3F907B0B3
:10BB700030BD000058D40200082300208CD70200FA
:10BB80002DE9F0410C460546FFF772FC0826B8B1D6
:10BB90006969032041B3154A154B0F0505D0576D50
:10BBA000D3F808C00F4467451ED1B1F5805F01D9B5
:10BBB000042019E0506DD3F808C04718674502D932
:10BBC0006670BDE8F0815164D16C106591641063BA
:10BBD00069695A6801F6FF711044090B0022FFF7EA
:10BBE0000FF90028EDD005206070EAE7383F00200B
:10BBF0002423002010B5044686B00020FFF7A6FCE1
:10BC000030B1154A18212046FDF744FE06B010BD9C
:10BC1000182212496846FDF700FC1148026D1148D0
:10BC200081688A4210D14068FFF73CFB8DF8010023
:10BC3000FEF72FFC8DF80100D4E901126846904709
:10BC40000948FFF7E7FAE1E701208DF80100D4E9A0
:10BC5000011268469047D9E7F5BB020018D50200EB
:10BC6000383F002024230020EDBC02002DE9F041E4
:10BC70000E460446FFF7FCFB60B11A4DD5E91401EE
:10BC8000401AA18A6A6C0844904205D9032070705A
:10BC9000BDE8F0810820FAE7134A286B526887183C
:10BCA000104A20694832FEF7BFF9D4E903318046D3
:10BCB000A28A3846FFF7BAF820B1D4E90310BDE8EC
:10BCC000F0410847A18A286B08442863A18A286D9F
:10BCD000C5F8488008442865C6F80880286D70605B
:10BCE000D6E70000383F0020242300200149062029
:10BCF000C968084724230020BFF34F8F0548016817
:10BD0000054A01F4E06111430160BFF34F8F00BFAA
:10BD1000FDE700000CED00E00400FA0501460148D3
:10BD2000FEF768BD94D7020030B58A1D8B790831C3
:10BD300087B0022B33D153888489A3422FD1127A42
:10BD4000012A2CD1184C0DF1040C3CCC8CE83C00A1
:10BD50000A89ADF80C204A890C3104911249ADF8DA
:10BD60000E208039114C096A0591CDF818D0018A4E
:10BD700005AA6088ADDF18B96846FEF78BF838B1C0
:10BD80000020ADF8080001A96088B0DF50B106E0DE
:10BD900040F2FD10ADF8080001A96088B0DF002076
:10BDA00007B030BD0120FBE770D40200082300205B
:10BDB000F8B50D4614460646694600F05DFA0028BF
:10BDC0000FD0009BB3F5803F0AD2981C834207D85E
:10BDD000A9780222B2EB911F02D02989814201D2B7
:10BDE0000020F8BD2380A11C3046009A00F07AFBA9
:10BDF000F8BD114600F0D5B8114600F0E7B8F8B527
:10BE00000C4615460646694600F036FA00280CD066
:10BE1000009A501C904207D3A1780223B3EB911FE4
:10BE200002D02189814201D20020F8BD2946304646
:10BE300000F058FB009A0021A954F8BD2DE9FF41FC
:10BE40000C46CE6817460546694600F01DFB0028E3
:10BE50000ED0E06800280BD0A0783A46C0F301105D
:10BE600002283146684606D000F0DEF80199696084
:10BE700004B0BDE8F08100F085F8F7E77CB50D4629
:10BE80001446694600F095F9002820D02889082832
:10BE900006D0042809D002280AD001280CD015E0C9
:10BEA000DDE90001C4E900010AE00098206006E035
:10BEB000009800B2208002E0009840B22070C117C4
:10BEC000DDE9002350405940084301D000207CBDEB
:10BED00001207CBD7CB50D461446694600F0A7F9EB
:10BEE000002820D02889082807D00021042809D05C
:10BEF00002280AD001280CD014E0DDE90001C4E9D1
:10BF0000000109E00098206006E0009880B22080DF
:10BF100002E00098C0B22070DDE900235040594093
:10BF2000084301D000207CBD01207CBD7CB50D46BE
:10BF30001446694600F07BF9002820D0288908289B
:10BF400008D00099CA1704280BD002280CD0012869
:10BF50000DD013E0DDE90012C4E9001208461346D3
:10BF600008E00846216004E008B2208001E048B201
:10BF70002070C31748405340184301D000207CBDB7
:10BF800001207CBD70B50D46064614461146284674
:10BF900000F095FA224629463046BDE8704000F090
:10BFA00043B838B50C460422694600F09BFA0028D5
:10BFB0000BD09DF80210BDF8000061F31F409DF802
:10BFC000031040EA01602060012038BD1CB50C461A
:10BFD0000822694600F086FA002824D09DF8011056
:10BFE0009DF800209DF80230080E42EA012242EA44
:10BFF000034240EA13409DF803309DF8041040EAE4
:10C00000132008439DF8051042EA036240EA01202C
:10C010009DF8061040EA01409DF8071040EA0160D3
:10C02000C4E9002001201CBD2DE9F04F05469DB05C
:10C0300000200F90064610904FF0FF3A01A800F044
:10C040005FF94FF0010B0DF13C0983E012AB6A463A
:10C050000BA9284600F0CAF850B101A8009900F0D9
:10C0600060F960B10298807810F0300F54D061E030
:10C070009DF84800002871D11DB0BDE8F08F0098F0
:10C08000B04243D3029C01AE0298807800F00F00CA
:10C09000082812D0304600F05BF90298A042F3D194
:10C0A00056460098B04231D3D5F8088007909DF8E5
:10C0B0002C000E900598046821E002980688F0E7AD
:10C0C000206807682FB1214628460E9B079AB8477B
:10C0D00012E01195216807980E9F896809888142AE
:10C0E0000CD1214617A8FEF7DBFA84F80CB017AA8A
:10C0F00039461198FEF704F80028BDD0A46814B1A1
:10C10000A9684145DCD0A968414523D19DF82C1090
:10C11000284600F023FA1BE0039840280AD200F0DA
:10C120001F000BFA00F20398400959F8203013431E
:10C1300049F82030EC682CB101AB9DF82C20284642
:10C140000099A04701AA9DF82C102846FDF7D8FFBA
:10C15000002891D0A86800287FF478AFDDE90204B8
:10C16000857801A800F0F4F80028F7D115F0300F19
:10C1700003D10298008800B1641CC4B10020494674
:10C1800005E000BF51F82020521C0ED1401CB0EB3E
:10C19000541FF7D3600959F8201004F01F00C0F1B4
:10C1A00020022AFA02F0814201D0002064E7012037
:10C1B00062E71CB50C46694600F039F8002814D037
:10C1C000DDE90002C10709D051084FEA30006FEAEB
:10C1D00000026FEA0100C4E9002004E051084FEAC0
:10C1E0003000C4E900014FF001001CBDF8B507465E
:10C1F0000020187008700E4610601C4615466946EF
:10C20000384600F039F801004FF0010009D00099DC
:10C2100059B1C8082860009800F00700307001206C
:10C22000F8BDB96809B10020F8BD2070FBE72DE921
:10C23000F8430026884681463446354604E0402EC1
:10C2400002D30020BDE8F8836946484600F076F93D
:10C250000028F7D09DF80070324607F07F00C10F2C
:10C26000FDF7CCF829430443F61D0D463806E6D405
:10C27000C8E900410120E5E7F8B50E4607466946E2
:10C2800000F05CF900280AD09DF80040200616D581
:10C29000072504F07F0403E0202D01D30020F8BD22
:10C2A0006946384600F04AF90028F8D09DF8001099
:10C2B00001F07F00A8400443ED1D0806ECD40120E6
:10C2C0003460F8BD10B559680B4AC968914212D163
:10C2D0000A4AD0E90110D2E90134234301D00020F9
:10C2E00008E011F8013BA0F101001B06F9D4C2E9F6
:10C2F00001100120507010BD94D20200382300209C
:10C30000C26000230160C0E901138B881A440261F6
:10C31000B1F906301A4442610888002800D0012093
:10C32000704770B545680E46044660680188B142A2
:10C3300006D1807800F00F00082801D0012070BDE0
:10C34000204600F005F86068A842EED1002070BDDC
:10C3500030B541680A885AB101F1100343600A8A76
:10C3600042B18C780A89C4F30115032D07D00BE084
:10C37000002030BDC2680168FFF7C2FFF8E79D7872
:10C38000C5F30115032D06D00225B5EB141F08D106
:10C390004C89624309E08D8804690022641B0461B2
:10C3A00003E0B5EB941F00D10422897811F0300F1F
:10C3B00002D18168491C81609C8801692144114433
:10C3C0000161B3F9062011444161012030BD30B54F
:10C3D0004168002487B0897801F00F02082A11D043
:10C3E0008A091ED00222B2EB911F09D10269C1F362
:10C3F00001110229146001D0032901D14069048090
:10C4000007B030BD0069056808E02C73294668460E
:10C41000FEF746F96846FFF7DAFFAD68002DF4D164
:10C42000EEE7C1F30111012912D00229E6D0032958
:10C43000E4D04268917801F00F0107290BD0D16850
:10C4400081B11289006907B0BDE83040FCF7E5BF53
:10C4500041690C70EDE70169D06807B0BDE8304074
:10C4600000F02DB81189006907B0BDE83040FCF735
:10C47000EDBF000010B5034B002408C080E8160093
:10C4800010BD0000FB9F020038B50D46044669460A
:10C49000FFF7F2FE00280BD0D4E90002D4E9021322
:10C4A000C5E90002C5E902130098814201D20020CB
:10C4B00038BDA860A168081AA060012038BD00B589
:10C4C0000A4687B001466846FFF71AFF002807D0E2
:10C4D0006846FFF77CFF6846FFF73AFF0028F7D170
:10C4E00007B000BD7FB514460546A9B9124A2868B1
:10C4F000904208D110E0102269462846FFF7F2FF6B
:10C50000002807D0103C102CF5D822466946284652
:10C51000FFF7E8FF04B070BDA868A04201D2002078
:10C52000F8E72B682246284698470028F2D0A868EA
:10C53000001BA8600120EDE7FB9F020010B5044638
:10C540008068002809D023680122204698470028E7
:10C5500003D0A068401EA060012010BD38B50024A3
:10C5600039B1012912D0022912D005291DD000208D
:10C5700038BD0546012269462846FFF7B3FF90B152
:10C580009DF800000006F5D4012038BD08220DE01A
:10C5900005466946FFF770FE28B100212846009A3B
:10C5A000FFF7A0FF38BD204638BD0422BDE8384063
:10C5B0000021FFF797BF00002DE9F04F81462C487E
:10C5C00017460E46C5680A4693B0012449462846D8
:10C5D000FDF780FFDFF89C80A24670B195F855000A
:10C5E00068B100F00101C0F340024B462846CDE996
:10C5F000006700F043F8D8B11BE0172419E0CDE93B
:10C60000006A4B460022294602A8FDF755FC4FF070
:10C61000000B68B10FB3412202A91748FCF7FDFED9
:10C62000C8F820B0C8F82CA06968C8F8081017E04E
:10C6300005246FB1012C13D00E482430FEF706FB01
:10C64000FEF750FDC8F8489013B02046BDE8F08FC3
:10C65000012C02D0FEF746FDF6E7C8F814A0F3E778
:10C66000002231464846FDF7DFFCC8E90960E7E7EC
:10C6700038230020383F0020D94100202DE9F04721
:10C68000A4B08946DDE92C5A044698461646442152
:10C6900002A8FCF7DBFE442113A8FCF7D7FE4746AF
:10C6A000B9F1000F38D008F50050384A4368A16D41
:10C6B000934255D14B1EC3F30B03C91A41F6FF73C6
:10C6C000D0F808C019448C454AD34FF440514B6808
:10C6D00093420DD10A78102A01D9096900E000219E
:10C6E0000278102A01D9006900E00020814237D188
:10C6F0004046FDF7A5FF00B18EB30121A06DCDE945
:10C70000000143460022214602A8FDF7D5FB002880
:10C7100027D0A06D07442D1A56B10020CDE9005056
:10C720003B464A46214613A8FDF7C6FB002818D011
:10C73000BAF1000F28D0164DB9F1000F19D04046BC
:10C74000FDF77EFF18B105F11800FEF77FFA4122D0
:10C7500002A91048FCF761FE36B1AC2005E0FFE706
:10C76000002024B0BDE8F087A520E862A06D6863D2
:10C7700001E0AA20E8623EB10648412213A98230B6
:10C78000FCF74BFE6068E8600120EAE7DBE5B151A9
:10C79000383F002098410020034802490068FDF717
:10C7A000D5BF00006023002074D502002DE9F041C0
:10C7B000224C0025224E207A012730B92148311D14
:10C7C0000068FDF7CEFF306038B10220207231687A
:10C7D000087928B101281CD114E06560BDE8F0811A
:10C7E000D1E90503C01A142800D31420B7EB900F29
:10C7F00001D2820800E001220869C968184419447E
:10C8000029DF03E0D1E90301084428DF58B11128EA
:10C8100012D003213068FDF712FE25726560BDE875
:10C82000F041FFF7B9BF207C0028D7D1BDE8F04127
:10C8300000210220FEF7CEBE2772CFE7FC47002082
:10C840005C23002074D5020010B5074C201DFDF7B5
:10C85000A1FF002806D1607C002803D1BDE810406C
:10C86000FFF7A4BF10BD0000FC47002010B5104624
:10C870001A46FCF7D2FD002010BD10B510461A462E
:10C88000FCF7CBFD002010BD2DE9F0411E681C46D1
:10C890001546074621B1012918D0052923D119E0F1
:10C8A00000202060401C2060B0421CD80122294694
:10C8B0003846FFF717FE002806D015F8010B0006D2
:10C8C00001D52068EEE70120BDE8F081082002468E
:10C8D000186002E004200246186029463846BDE888
:10C8E000F041FFF7FFBD0020EEE770B516460A469F
:10C8F0000446C11C104600F0B5FB054661193046E0
:10C90000C91C00F0AFFB284470BD000003B5094A04
:10C9100085B0D2E91612CDE9001207498989ADF830
:10C92000001006A9CDE90210044869464088AEDF30
:10C9300007B000BDF0D30200DC2700200823002050
:10C94000084670470846704770B5FEF773FC114AF9
:10C95000114E136B546B916CE21A551EC5F30B0507
:10C96000521B42F2040518446D5802F6FF72B5429C
:10C9700001D0032070BD1944A34201D1002070BD35
:10C980000823FDF7DFFD0028F9D1BDE87040FEF770
:10C9900041BC0000383F0020DBE5B151F0B5054651
:10C9A000002003464FF440540C4E4FF6FE7712E041
:10C9B000D4F804C0B44505D155F823C0B4F80CE050
:10C9C000F44504D02AB155F823C0BC4501D101205B
:10C9D000F0BD5B1CDBB28B42EAD3F0BDDBE5B151AD
:10C9E00010B54FF44051174B4A68018A9A4221D141
:10C9F00071B100F11403426990F8550062B1042846
:10CA000008D00022BDE81040C9B21846FFF7C6BFE3
:10CA1000002010BD0122F5E710B1012808D1F7E789
:10CA2000012905D9C9B200221846FFF7B7FFEFE781
:10CA3000012010BD11B141690029E9D10078002819
:10CA4000F6D110BDDBE5B1513EB504460949684653
:10CA5000FEF7DAFF08E000BFD0E90021204690474A
:10CA600030B16846FEF7E7FF02980028F4D13EBDDA
:10CA700011203EBDB8D602003EB5044608496846BE
:10CA8000FEF7C2FF07E000BFD0E900212046904733
:10CA90006846FEF7D0FF02980028F5D13EBD0000A1
:10CAA000C4D6020002460348014B006800F009B8F2
:10CAB000B83B00203423002000225821001DFDF740
:10CAC000B3BA2DE9F04114464FF460751E460F4687
:10CAD00080462A46FCF7C5FC30B1002201214046C1
:10CAE000FEF78EF998B905E00CB10020A0470020B0
:10CAF000BDE8F0812A4639463046FCF78EFC2346D5
:10CB00002A4631464046FEF791F90028F0D003202E
:10CB1000EEE770B516460D46040007D035B1206C1F
:10CB2000802200213828225403D307E00E2070BD54
:10CB30002154401C3828FBD30BE02154401C4028D2
:10CB4000FBD32146084600F097F838212046FCF731
:10CB50007DFC216CD4E912304A0FC90038345918D1
:10CB60005041C4E90410227CE2710A0A42EA0062E0
:10CB7000A2710A0C42EA00426271020242EA1160AA
:10CB800020716069E070010AA170010C6170000EF3
:10CB900004F838092146084600F06EF84FF000020C
:10CBA000EEB1E06ED100C840A854A36ECB40A818E7
:10CBB0000371636ECB400372236ECB400373E36D4E
:10CBC000CB400374A36DCB400375636DCB400376FC
:10CBD000236DCB40521C0377042AE2D31FE01823B5
:10CBE0005042216D03EBC000C140A954666DC640A0
:10CBF000A9180E71A66DC6400E72E66DC6400E7382
:10CC0000266EC6400E74666EC6400E75A66EC64091
:10CC10000E76E66EC640521C0E77042AE0D3002042
:10CC200070BD0000A8B100210164C0E912110A49D9
:10CC300001650A4941650A4981650A49C1650A4990
:10CC400001660A4941660A4981660A49C1660020AF
:10CC500070470E207047000067E6096A85AE67BB23
:10CC600072F36E3C3AF54FA57F520E518C68059BCE
:10CC7000ABD9831F19CDE05B2DE9F04FC8B000227E
:10CC800013466F46CC181B1D2588A6786DBA2D0457
:10CC9000E47845EA0625254347F82250521C102A1D
:10CCA000F0D31BE007EB820151F8083C4FEA7344D4
:10CCB00084EAF34484EA932451F83C3C4FEAF315A8
:10CCC00085EAB34585EAD303234451F81C4C51F857
:10CCD000401C2144194447F82210521C402AE1D339
:10CCE000036D4793416D4691846D4594C26D4492A6
:10CCF0009246026E4392456E4295A946856E4195D5
:10CD0000C66E4096B34600264FEAB21787EAF2276E
:10CD100087EA726C02EA090725EA020887EA08072F
:10CD2000BC44204F57F8268008EB0B07BC445DF845
:10CD30002670AB460CEB070E4FEAB30787EA733752
:10CD400087EAB35C81EA04074D4601EA040891468C
:10CD50001F400AEB0E02A24687EA08070C46BC44B5
:10CD60001946761C0EEB0C03402ECDD3479E334460
:10CD70000365469B19444165459921448165449961
:10CD80005144C16543991144016642994944416641
:10CD900041992944816640995944C16648B0BDE82B
:10CDA000F08F0000A4D502002DE9F04116460F4691
:10CDB000040004D006B317B10025A8461AE00E20DF
:10CDC000BDE8F081216C785D6054206C401C2064CB
:10CDD00040280ED121460846FFF74EFFD4E9120144
:10CDE0004FF40072801841F10001C4F84080C4E99A
:10CDF00012016D1CB542E5D30020E1E710B5162005
:10CE0000FCF7ACFC48B10C4882684FF4800152B189
:10CE1000016821F48001016010BDBDE8104042F2BC
:10CE20000100FCF735BD4FF0E020C0F88011BFF3E2
:10CE30004F8FBFF36F8F10BD0446002010B5162032
:10CE4000FCF78CFCA0B1114890F8000440090828B8
:10CE500011D20121814011F0EC0F0CD00C488268F6
:10CE60004FF480016AB1016841F48001016010BD96
:10CE700042F2010001E042F20200BDE81040FCF77E
:10CE800007BD4FF0E020C0F8001110BD16E000E033
:10CE9000044600207FB52A4800F15C01826B684699
:10CEA000FFF7E8FA274E9DE8070006F11C03274C20
:10CEB00083E8070019462448C8600020607060605D
:10CEC000A0604FF44771A6F54070FCF7BFFAA6F5D5
:10CED00040721F4902F54770FFF754F800282BD025
:10CEE000607858B3A6F5407090F86C11002901786D
:10CEF0001CD019BB90F8720100B3D4E90112A6F559
:10CF0000C6756846FFF7B6FA9DE80F001C3686E83E
:10CF10000F004FF4B2712846FCF798FA2A460D49E3
:10CF20003046FFF72FF8002806D003E031B18079B2
:10CF300020B1094D0120E56004B070BD0020FBE781
:10CF4000383F0020B8450020C5C202003823002029
:10CF5000B4D3020094D20200C042002070B5034650
:10CF60006FF07F40814200D20846124DD5F804256B
:10CF70000244081A411E22F07F425860952902D2CD
:10CF80009630963A58601C7B05EB8400C0F840252B
:10CF900009494FF4F86088474FF4A07000EB840112
:10CFA0002846FEF7F5FB4FF48030A040C5F8040397
:10CFB00070BD00000010014011D2020070B5184E83
:10CFC000307800282AD1174800680125C0F30040B6
:10CFD00008B915480560154C4FF480712046FEF7DE
:10CFE000D7FB4FF4A0712046FEF7D2FB4FF4A2719D
:10CFF0002046FEF7CDFB0E49A02081F800044FF03B
:10D00000E0224FF400310020C2F80011C4F80805F6
:10D01000A56025600220C4F80403357070BD0000CF
:10D02000D0220020180400400800004000100140F9
:10D0300011E000E070B515460E460446FFF7BEFF4E
:10D04000314620462560BDE87040FFF787BF0000ED
:10D05000017B4FF4803088400149C1F808037047D4
:10D06000001001400870020A4A70020C8A70000E1B
:10D07000C87004207047000010B50248FDF787FB18
:10D08000002010BD5823002010B514210448FCF7DF
:10D09000DDF904480068FDF733FB002010BD0000F7
:10D0A000FC47002074D5020030B50F2490F85530AD
:10D0B00000220BB1042B03D190F86450012D06D04F
:10D0C000DD0707D090F85650012D02D002E0826EA5
:10D0D0000DE0826D9B070AD590F85C30012B06D1DC
:10D0E000064B006EC3F53833984205D802440AB1A6
:10D0F00001240A60204630BD0424FBE700900200B2
:10D1000030B100680549884205D048F202507047A6
:10D1100048F2015070470020704700006E524648A8
:10D1200070B5FEF7DFFC002811D00020084A094B3B
:10D13000094C0121166801FA00F52E4203D004EBD8
:10D140008005C5F80036401CC0B20728F2D370BD78
:10D15000080501403546526E00000140FFF7E0BF70
:10D1600000207047002070472DE9FC4180461C4696
:10D1700017460E460C48089DFDF70CFB10B1112018
:10D18000BDE8FC81A20839463046FEF7DFFA0648C2
:10D19000FDF7FDFA33463A4601214046CDE9004508
:10D1A000FDF732F90020EBE7582300202DE9F84F76
:10D1B000114D884681461E4617466946DDF828A06F
:10D1C0002868FDF7B8FA040013D01C21FCF73EF9DB
:10D1D00000202071C4F80090C4E90486C4E902A7C5
:10D1E00069462868FDF7C8FAFFF72EFB0020BDE866
:10D1F000F88F0420FBE7000074D502000D0E0F101D
:10D200000B0C1819000000000000000000000000D6
:10D210000338FDD870470000D9BA0200DFBA020017
:10D22000B5BA0200200000007800000000000000F5
:10D2300000000000010001000000000001000000EB
:10D2400000000000020005000100000022000000B4
:10D2500000000000000000000000000000000000CE
:10D2600000000000010001000000000001000000BB
:10D270000000000002000500010000004200000064
:10D28000000000000000000000000000000000009E
:10D2900000000000010011000400FCFF0400000079
:10D2A00000000000020011000400FCFF0400000068
:10D2B00000000000030021000400FCFF0400100037
:10D2C00000000000040011000100FFFF0100000049
:10D2D00000000000050011000200FEFF0400000035
:10D2E00000000000060011000400FCFF0400000024
:10D2F00000000000070011000400FCFF0400000013
:10D3000000000000080017000200FEFF24000000DB
:10D3100034D20200090010000100FFFF01000000EC
:10D3200030D202000A0027000200FEFF4400030082
:10D3300064D20200000000000000000000000000B5
:10D3400000000000010011000100FFFF01000000CB
:10D3500000000000020017000200FEFF6401000050
:10D3600094D2020000000000000000000000000055
:10D37000000000000100070000000000680100003C
:10D3800044D3020002000100000000000100000080
:10D390000000000003000500010000004200000042
:10D3A000000000000000000000000000000000007D
:10D3B00000000000010017000400FCFF68010000ED
:10D3C00044D30200020017000400FCFFAC0100007F
:10D3D00074D3020000000000000000000000000004
:10D3E000000000000000000000000000000000003D
:10D3F00000110300001113000200000001000000F2
:10D400000338FDD870470C000C00000058020000E3
:10D410000200000000000000020000000000000008
:10D42000A02700200900000000000000000000000C
:10D4300001000000000000002800000000000000C3
:10D4400000000000000100000000010000000000DA
:10D4500000000000000000000000000000000000CC
:10D460002D9B0200000000000000000000000000F2
:10D4700002000000000001000000000000000000A9
:10D4800008000000000000002D9B02001DBD0200EE
:10D490000000000000000000040000000000000088
:10D4A000000000000000000000000000000000007C
:10D4B000000000000000000000000000000000006C
:10D4C000F400000000000000180000000000000050
:10D4D000000000000000000000000000000000004C
:10D4E000000000000000000000000000000000003C
:10D4F000170000000000000050EADA308883B89F6F
:10D50000604F15F30000C98E02000000000000000B
:10D510000000000000000000040000000000000007
:10D5200000000000000000000000000000000000FB
:10D5300000010000000000000000000000000000EA
:10D5400000000000000000000010000004000000C7
:10D5500001000000DDA5020079D002006DC80200C4
:10D5600069D1020075A3020041C9020061D1020025
:10D5700021A6020010460020001000000400000058
:10D5800001000000E9A5020089D002007BC802006A
:10D59000ADD10200BDA3020045C9020065D1020061
:10D5A00031A60200982F8A4291443771CFFBC0B553
:10D5B000A5DBB5E95BC25639F111F159A4823F925E
:10D5C000D55E1CAB98AA07D8015B8312BE853124B7
:10D5D000C37D0C55745DBE72FEB1DE80A706DC9B78
:10D5E00074F19BC1C1699BE48647BEEFC69DC10F24
:10D5F000CCA10C246F2CE92DAA84744ADCA9B05C60
:10D60000DA88F97652513E986DC631A8C82703B022
:10D61000C77F59BFF30BE0C64791A7D55163CA0630
:10D6200067292914850AB72738211B2EFC6D2C4D3C
:10D63000130D385354730A65BB0A6A762EC9C2812A
:10D64000852C7292A1E8BFA24B661AA8708B4BC2C0
:10D65000A3516CC719E892D1240699D685350EF4EA
:10D6600070A06A1016C1A419086C371E4C774827A1
:10D67000B5BCB034B30C1C394AAAD84E4FCA9C5B17
:10D68000F36F2E68EE828F746F63A5781478C88468
:10D690000802C78CFAFFBE90EB6C50A4F7A3F9BE4A
:10D6A000F27871C6B0D70200B8D7020000000000BF
:10D6B0000000000000100201A4D60200B4D602004F
:10D6C00008000000DCD60200ECD6020008000000D2
:10D6D000ECD60200FCD6020008000000D0D7020001
:10D6E000D8D702000000000000000000C0D70200F0
:10D6F000D0D7020000000000000000000000000081
:10D70000000000000000000000000000A8D7020098
:10D71000B0D702000000000000000000C822002076
:10D72000FCD602001CD7020008000000B8D7020097
:10D73000C0D7020000000000000000002CD702004B
:10D740003CD70200080000002DBF0200D5BE020039
:10D750007DBE0200F3BD0200F9BD0200B1BD0200B2
:10D76000FFBD02003DBE020000000000E4D7020041
:10D77000C8220020B80000003C9702009CD802009C
:10D7800080230020902C00004C970200459C020052
:10D79000E59B020018230020F0270020012800202C
:10D7A00004280020F4000000DD9C020000000000BE
:10D7B0009DB5020000000000D5B502000000000089
:10D7C00059B8020000000000CDB9020000000000BE
:10D7D000B5B50200000000000000000003000000DA
:10D7E0009DAF0200000000000000000000000000EB
:10D7F000E0220020F02200200000000000000000D5
:10D800000000000000000000000000000000000018
:10D810000000000000000000010000000000000007
:10D8200000000000FF00FFFF0000000000000000FB
:10D8300000000000000000000000000000000000E8
:10D8400001000000000000000000000000000000D7
:10D8500000E00200000000000000000000000000E6
:10D8600000000000000000000000000000000000B8
:10D8700000000000000000000000000000000000A8
:10D88000000000000090D003000000000000000035
:0CD8900095A20200001000000000030040
:020000041000EA
:041014000090020046
:020000041000EA
:0410180000E00200F2
:040000050002920162
:00000001FF
